:020000040800F2
:10000000504A002031020008170900080F090008B3
:1000100013090008F9060008F10E000800000000AE
:10002000000000000000000000000000990100082E
:100030007907000800000000DD010008390C000805
:100040004B0200084B0200084B0200084B0200085C
:100050004B0200084B0200084B0200084B0200084C
:100060004B0200084B0200084B0200084B0200083C
:100070004B0200084B0200084B0200084B0200082C
:100080004B0200084B0200084B0200084B0200081C
:100090004B0200084B0200084B0200084B0200080C
:1000A0004B0200084B0200084B0200084B020008FC
:1000B0004B020008A90C00084B0200084B02000884
:1000C0004B0200084B0200084B0200084B020008DC
:1000D0004B020008AD0C00084B0200084B02000860
:1000E0004B0200084B0200084B02000800F002F827
:1000F00000F042F80AA090E8000C82448344AAF180
:100100000107DA4501D100F037F8AFF2090EBAE87D
:100110000F0013F0010F18BFFB1A43F0010318473B
:10012000C02F0000E02F0000103A24BF78C878C12B
:10013000FAD8520724BF30C830C144BF04680C60ED
:10014000704700000023002400250026103A28BF35
:1001500078C1FBD8520728BF30C148BF0B60704739
:10016000642900F0F180732900F026820020704796
:100170001FB51FBD10B510BD00F08CFA1146FFF77A
:10018000F7FF00F0F5FE00F0AAFA03B4FFF7F2FF64
:1001900003BC00F0AFFE0000224B19680868B0E80D
:1001A000F00F80F30988BFF36F8F4FF0000080F3EA
:1001B00011884EF00D0E70470000000006480068E0
:1001C000006880F3088862B661B6BFF34F8FBFF353
:1001D0006F8F00DF00BF00BF08ED00E0EFF3098084
:1001E000BFF36F8F0F4B1A6820E9F00F106008B54E
:1001F0004FF0500080F31188BFF34F8FBFF36F8F24
:1002000002F08CF84FF0000080F31188BDE8084040
:1002100019680868B0E8F00F80F30988BFF36F8FA2
:10022000704700BF38000020EFF3058070470000E2
:100230000948804709480047FEE7FEE7FEE7FEE77A
:10024000FEE7FEE7FEE7FEE7FEE7FEE704480549B6
:10025000054A064B70470000490C0008ED000008F5
:1002600050440020504A00205046002050460020B4
:10027000704700000FB4044910B503AA029800F0BB
:100280009FF910BC5DF814FBAC0000202DE9F04193
:100290000E460446002020622046E168884730B3BD
:1002A000252805D0D4E901219047206A401CF2E7B7
:1002B000E168204600278847050018D0A5F14100D5
:1002C000192802D820354FF40067324629462046C7
:1002D0002760FFF745FF40B1012804D0F61D26F046
:1002E00007060836D8E7361DD6E72846DAE7206A3B
:1002F000BDE8F08170B50C460546012A05D0287886
:10030000800600D5EA69002302E0012305E05B1CBA
:10031000934202D2E05C0028F9D1A869E618C01A1D
:10032000A861286A184428622846AFF3008004E0D8
:10033000D5E9012114F8010B9047B442F8D32846BF
:10034000AFF3008070BD00002DE9F04106460024A7
:1003500010687529314616A510D0AFF3008000282B
:1003600002DA404213A507E031688A0701D512A5D9
:1003700002E0490704D511A5012401E0AFF3008094
:1003800000210A2206F1240709E0B0FBF2FCB0FBD1
:10039000F2F302FB1C00303078541846491C002848
:1003A000F3D123462A463046BDE8F04100F080B83C
:1003B000000000002D0000002B00000020000000C5
:1003C000032A40F2308010F0030C00F0158011F881
:1003D000013BBCF1020F624498BF11F801CB00F859
:1003E000013B38BF11F8013BA2F1040298BF00F8AD
:1003F00001CB38BF00F8013B11F0030300F0F2809D
:10040000083AC0F0088051F8043B083A51F804CB90
:10041000A0E80810F5E7121D5CBF51F8043B40F856
:10042000043BAFF30080D20724BF11F8013B11F861
:1004300001CB48BF11F8012B24BF00F8013B00F8A5
:1004400001CB48BF00F8012B704702F0FF0343EADD
:10045000032242EA024200F0F9B84FF0000200B570
:10046000134694469646203922BFA0E80C50A0E8D7
:100470000C50B1F12001BFF4F7AF090728BFA0E885
:100480000C5048BF0CC05DF804EB890028BF40F851
:10049000042B08BF704748BF20F8022B11F0804F93
:1004A00018BF00F8012B70477047704770477047BE
:1004B0002DE9F0470D4699469246044600F124087E
:1004C0000168880604D5E06921F01001216000E090
:1004D0000120A84201DD471B00E00027A1697A192D
:1004E00002EB0900081AA0612078C00602D4204659
:1004F000AFF30080002608E0D4E901211AF80600D5
:100500009047206A401C761C20624E45F4DB207820
:10051000C0060AD52046AFF3008006E0D4E90121E9
:1005200030209047206A401C2062381EA7F1010746
:10053000F4DC07E0D4E9012118F805009047206AAF
:10054000401C2062281EA5F10105F3DC2046AFF314
:1005500000802078000602D50220BDE8F087012047
:10056000FBE7000001694A1C02610878704700B58A
:100570008FB0CDE901310021059105497944CDE9DC
:10058000031011466846FFF781FE0FB000BD000062
:10059000E5FFFFFF10B5436913B1AFF3008001E041
:1005A000FFF7A8FE012010BD127800F124010A70A7
:1005B00000224A700122EDE711684FF0FF32E9E7AF
:1005C000074B70B50D467B44FFF7D1FF0446284624
:1005D00000F05CF810B14FF0FF3070BD204670BDE8
:1005E0008B09000010B5203AC0F00B80B1E818501C
:1005F000203AA0E81850B1E81850A0E81850BFF40D
:10060000F5AF5FEA027C24BFB1E81850A0E81850AB
:1006100044BF18C918C0BDE810405FEA827C24BFFF
:1006200051F8043B40F8043B08BF7047D20728BF8D
:1006300031F8023B48BF11F8012B28BF20F8023BDC
:1006400048BF00F8012B70474FF000020429C0F0AA
:10065000128010F0030C3FF402AFCCF1040CBCF19B
:10066000020F18BF00F8012BA8BF20F8022BA1EB46
:100670000C01FFF7F4BE5FEAC17C24BF00F8012B38
:1006800000F8012B48BF00F8012B7047007B00F0F9
:1006900080007047754600F02BF8AE4605006946AD
:1006A000534620F00700854618B020B5FFF7CEFD71
:1006B000BDE820404FF000064FF000074FF0000863
:1006C0004FF0000B21F00701AC46ACE8C009ACE8E4
:1006D000C009ACE8C009ACE8C0098D46704710B548
:1006E0000446AFF300802046BDE81040FFF74DBD43
:1006F00000487047EC43002000BFFEE710B50446F9
:10070000012C04D10102054800F0FFF804E04FF489
:100710008071024800F0F7F810BD000000080140A9
:1007200008B50121042000F039F94FF48070ADF8CC
:10073000000003208DF8020010208DF803006946A8
:10074000044800F055F84FF48071024800F0DBF8DF
:1007500008BD0000000801400DE00120FFF7CEFFBA
:100760004FF47A7001F052FC0020FFF7C7FF4FF4FE
:100770007A7001F04BFCF0E77047000010B50446BA
:10078000012C04D14021044800F0BFF803E04021CF
:10079000014800F0B8F810BD0008014008B501217B
:1007A000042000F0FBF84020ADF8000003208DF895
:1007B000020010208DF803006946044800F018F884
:1007C0004021024800F09FF808BD000000080140E9
:1007D0000DE00120FFF7D2FF41F2883001F016FC56
:1007E0000020FFF7CBFF41F2883001F00FFCF0E76B
:1007F0002DE9F041024600250026002000230024B8
:10080000002791F803C00CF00F0591F803C00CF01D
:10081000100CBCF1000F03D091F802C04CEA0505A2
:1008200091F800C0BCF1000F31D0146800202BE01B
:100830004FF0010C0CFA00F3B1F800C00CEA03060B
:100840009E4220D183004FF00F0C0CFA03F7BC43FB
:1008500005FA03FC4CEA040491F803C0BCF1280F2C
:1008600006D14FF0010C0CFA00FCC2F814C00AE0EB
:1008700091F803C0BCF1480F05D14FF0010C0CFA00
:1008800000FCC2F810C0401C0828D1D31460B1F895
:1008900000C0BCF1FF0F34DD546800202EE000F1F1
:1008A000080C4FF0010808FA0CF3B1F800C00CEA8C
:1008B00003069E4221D183004FF00F0C0CFA03F780
:1008C000BC4305FA03FC4CEA040491F803C0BCF1F4
:1008D000280F05D100F1080C08FA0CF8C2F81480B2
:1008E00091F803C0BCF1480F07D100F1080C4FF09C
:1008F000010808FA0CF8C2F81080401C0828CED372
:100900005460BDE8F081416170470161704700BFEC
:10091000FEE700BFFEE7704770B5002100230F22FD
:10092000C47804B3154C246804F4E064C4F5E064AE
:10093000210AC1F10403CA40447804FA03F184781F
:100940001440214309010E4C0678A155047804F0A7
:100950001F050124AC4005786D11AD0005F1E025BF
:10096000C5F8004109E0047804F01F050124AC40FB
:10097000044D0678761145F8264070BD0CED00E078
:1009800000E400E080E100E002490143024A116016
:10099000704700000000FA050CED00E029B1064A9E
:1009A00092690243044B9A6104E0034A92698243CC
:1009B000014B9A61704700000010024030B50021E1
:1009C0000022002400232D4D6D6805F00C0121B19B
:1009D000042905D0082923D105E0294D056022E02E
:1009E000274D05601FE0254D6D6805F47012234DFD
:1009F0006D6805F48034022505EB92421CB9214D47
:100A0000554305600BE01D4D6D6805F400351DB1C3
:100A10001C4D5543056002E0194D5543056002E049
:100A2000174D056000BF00BF144D6D6805F0F00163
:100A30000909154D6B5C0568DD4045600F4D6D681B
:100A400005F4E061090A104D6B5C4568DD40856086
:100A50000A4D6D6805F46051C90A0B4D6B5C456821
:100A6000DD40C560054D6D6805F44041890B074DBB
:100A70006B5CC568B5FBF3F5056130BD0010024045
:100A800000127A0000093D002400002034000020FC
:100A900010B500F001F810BD0CB5002001900090D9
:100AA0003348006840F480303149086000BF304866
:100AB000006800F4003000900198401C01900098FC
:100AC00018B90198B0F5A06FF1D12948006800F479
:100AD000003010B10120009001E00020009000984B
:100AE000012843D12348006840F0100021490860E4
:100AF0000846006820F0030008600846006840F0DF
:100B0000020008601A484068194948600846406871
:100B100048600846406840F4806048600846406885
:100B200020F47C1048600846406840F4E8104860B3
:100B30000846006840F08070086000BF0C480068FC
:100B400000F000700028F9D00948406820F0030048
:100B5000074948600846406840F00200486000BF0E
:100B60000348406800F00C000828F9D10CBD0000D3
:100B700000100240002002401CB5044601F0D6F8E7
:100B80001248022100234022CDE9001010A1134891
:100B900001F0D2FF1248022100234022CDE90010CB
:100BA00010A1144801F0C8FF13480121002380223E
:100BB000CDE9001011A1144801F0BEFF13480068F0
:100BC00001F05EFA01F0F4F81CBD00000400002002
:100BD00042757A7A65725461736B00005907000898
:100BE00008000020446F6F724374726C5461736B21
:100BF00000000000D10700080C000020556172744D
:100C00005461736B00000000D10E0008000000204A
:100C1000042808D14FF0E021096941F004014FF0A8
:100C2000E022116107E04FF0E021096921F00401A1
:100C30004FF0E0221161704710B501F0ADFF0128BF
:100C400001D001F05DFC10BD10B51348006840F004
:100C500001001149086008464068104908400E49E3
:100C60004860084600680E4908400B49086008467D
:100C7000006820F4802008600846406820F4FE00E8
:100C800048604FF41F008860FFF702FF4FF00060DC
:100C90000449086010BD0000001002400000FFF889
:100CA000FFFFF6FE08ED00E07047000010B540F2CF
:100CB00025511D4800F04AF810B31B4800F002F916
:100CC000C4B21A48008800F40040C8B91748008828
:100CD00000F4804060B10A2C03D000201349088042
:100CE00021E01248008840F40040104908801AE0D2
:100CF0000D2C06D10D48008840F480400B49088037
:100D000011E00A480088C0F30D0009490C54074857
:100D10000088401C0549088008460088B0F57A7FA5
:100D200001DB0020088010BD00380140B000002029
:100D30000440002021B1828942F40052828104E003
:100D400082894DF6FF731A408281704770B5024662
:100D5000002400230025002040F66A16B14200D18D
:100D600000BFC1F3421501F01F03012606FA03F389
:100D7000012D02D19689334006E0022D02D1168A58
:100D8000334001E0968A33400C12012606FA04F43F
:100D90001688344013B10CB1012000E0002070BD72
:100DA000F0B50346002400260025002040F66A170F
:100DB000B94200D100BF1846C1F3421401F01F062A
:100DC000012707FA06F5012C01D10C3004E0022CB2
:100DD00001D1103000E014301AB107682F430760CA
:100DE00002E00768AF430760F0BD00002DE9F0475F
:100DF00086B005460E460024A24600BFA146002745
:100E0000B08900B100BF2F462C8A4CF6FF70044019
:100E1000F08804432C82AC894EF6F3100440B0886D
:100E200031890843718908430443AC81AC8A4FF689
:100E3000FF400440B0890443AC8201A8FFF7BEFD27
:100E40001F48874202D1DDF810A001E0DDF80CA0B8
:100E5000A88900F4004040B10AEBCA0000EB0A1078
:100E600031684900B0FBF1F807E00AEBCA0000EB7B
:100E70000A1031688900B0FBF1F86420B8FBF0F08B
:100E800004012009642101FB1089A88900F40040B5
:100E900040B1322000EBC900B0FBF1F000F00700D8
:100EA000044308E0322000EB09106421B0FBF1F0AC
:100EB00000F00F0004432C8106B0BDE8F08700006D
:100EC0000038014001468888C0F3080070470000E0
:100ED00006E004A0FFF7CEF94FF4FA6001F096F8AF
:100EE000F7E70000313233343536736161000000BA
:100EF00000BFFEE700BF704710B50420FFF788FE73
:100F0000104800681049B0FBF1F0104908700D4816
:100F100000680D49B0FBF1F44FF47A7044430120AE
:100F20000B4908804FF0E020006940F002004FF0CC
:100F3000E021086108464461006940F00100086151
:100F400010BD00001000002040420F00B200002041
:100F5000B400002000BF054A128802F04002002AB7
:100F6000F9D0C2B2014B1B1D1A80704700380140F6
:100F70001CB54FF44070FFF707FDFFF7BDFF4FF4BE
:100F8000E13000F039FEFFF7CBFBFFF707FC074825
:100F9000012100238022CDE9001005A1074801F0BE
:100FA000CBFD01F05DF900201CBD00000000002019
:100FB00073746172745461736B000000790B0008E4
:100FC0002DE9F04105460E461C4807681C4800689C
:100FD000001D00F061FE50B91948006890F82C100F
:100FE0000120884017490968814316480160681C40
:100FF00038B936B112480168091D134800F08AFE5D
:101000001AE07C190E4800684460BC4207D20C48C4
:101010000168091D0D48006800F062FE0CE00848F8
:101020000168091D0A48006800F05AFE0948006876
:10103000844201D207480460BDE8F0814C000020E2
:101040003800002050000020C8030020400000208D
:101050003C0000206800002010B5044600F066FE49
:1010600024480068401C234908602348006840B9B0
:10107000214804600846006801280DD100F0E0F91D
:101080000AE01E48006838B91B480068C06AE16A77
:10109000884201D81848046019480068401C184963
:1010A000086008460068606494F82C1001208840AD
:1010B00014490968084313490860E16A01EB81019A
:1010C000114A02EB8100211D00F024FE00F070FEA9
:1010D0000A48006868B108480068C06AE16A884246
:1010E00007D24FF0805009490860BFF34F8FBFF31C
:1010F0006F8F10BD480000203800002054000020F1
:101100006400002050000020F800002004ED00E002
:1011100010B500F00BFE10480068D0B90F4800F081
:10112000CFFD0F4800F0CCFD0C480E4908600C487C
:101130000D49086000221021052001F0FBF9064945
:1011400008600846006820B108A10348006800F064
:1011500021FF00F02DFE10BD7C000020DC030020EC
:10116000F00300207400002078000020546D7251BC
:101170000000000010B516E000F0D8FD0C48C06873
:10118000C468201D00F088FD0A480068401E094917
:10119000086009480068401E0749086000F008FE22
:1011A000204600F05EF8044800680028E4D110BD35
:1011B000B4030020480000204400002070B504461D
:1011C0000D46206C70B1216CE0680844E0606168F5
:1011D000E068884201D32068E0602846226CE1681C
:1011E000FFF7EEF870BD2DE9F04104460F461546B5
:1011F0004FF00008A66B206C40B9206860BB6068A7
:1012000001F090FD80460020606025E07DB9394600
:10121000226CA068FFF7D4F8216CA0680844A06095
:10122000D4E90110884217D32068A06014E0394641
:10123000226CE068FFF7C4F8216CE068401AE060B7
:101240002168E068884203D2216C6068401AE0603F
:10125000022D01D106B1761E701CA0634046BDE888
:10126000F08110B50446206B00F0D8FD204600F058
:10127000D5FD10BD0146084A126812680AB901225C
:1012800000E000220A600A6822B9034A1268D268A4
:10129000106800E0002070477400002030B54FF463
:1012A0007053174800F007042CB1C01D20F0070050
:1012B000134C041B1B1B0246124C22600024114DD0
:1012C0006C60D018083820F007000F4C2060002414
:1012D0000D4D2D686C600C4D2D682C601146441A24
:1012E0004C60094C24680C60084D4C682C60084D1B
:1012F0004C682C604FF00044064D2C6030BD00005F
:1013000004040020940000209C000020A400002081
:10131000A0000020A800002000BFFFF72BFF064818
:1013200000680128F9D94FF0805004490860BFF3E4
:101330004F8FBFF36F8FF0E7F800002004ED00E05F
:101340002DE9F04106460D4617469846069C0DB914
:10135000246000E02760E66325640121204601F057
:1013600023F984F850800020A064BDE8F0810000DB
:101370002DE9F05F82460F4690469B460A9E0C9CE4
:101380004FEA8801A522206BFFF75FF8A8F1010062
:10139000216B01EB800929F0070909F0070008B962
:1013A000012000E0002028B940F263321BA120A0F8
:1013B000FEF760FF002507E0795D04F13400415538
:1013C000785D00B902E06D1C102DF5D300BF00213F
:1013D00043200155202E00D31F26E662E66400203C
:1013E0002065201D00F079FC04F1180000F075FC68
:1013F0002461C6F12000A06164620020606584F869
:1014000058005A465146484600F0E4FB20600B98CD
:1014100008B10B980460BDE8F09F00004672656556
:1014200052544F535C7461736B732E630000000061
:101430004572726F723A25732C25640D0A00000004
:1014400010B5002407E004EB84010F4A02EB810091
:1014500000F036FC641C202CF5D30C4800F030FC66
:101460000B4800F02DFC0B4800F02AFC0A4800F065
:1014700027FC0A4800F024FC044809490860044895
:101480000849086010BD0000F80000207803002023
:101490008C030020A0030020B4030020C803002018
:1014A0003C0000204000002010B50146164800E036
:1014B000006803688B42FBD30246436813448B42A7
:1014C00004D143684C682344436001460A464B6894
:1014D00013440468A34211D10C4C03682468A3424E
:1014E00008D04B680468646823444B6003681B6839
:1014F0000B6005E0054B1B680B6001E003680B60A7
:10150000884200D0016010BD940000209C000020A3
:101510002DE9F04104460D4616461F464FF00008DF
:1015200065602461B5420CD8F01BA169884202D3E2
:101530004FF0010811E0211D0948006800F0D0FBC0
:101540000BE0BE4204D2BD4202D34FF0010804E0DA
:10155000211D0448006800F0C3FB4046BDE8F0814F
:10156000780000207400002070B5054600F0DEFB16
:10157000A86B08B9012400E0002400F019FC204603
:1015800070BD70B5054600F0D1FBA86BE96B8842D1
:1015900001D1012400E0002400F00AFC204670BDC7
:1015A0002DE9F3410D460098846C00272CB940F6D4
:1015B00025321AA11EA0FEF75DFEA06BE16B8842EA
:1015C00001D2012000E0002028B940F6263213A104
:1015D00017A0FEF74FFEA06BE16B88421BD294F977
:1015E00045602A4669462046FFF7FDFD0746701C08
:1015F00060B9606A08B9012000E0002050B904F128
:10160000240001F0FBFB28B1012703E0701C40B26D
:1016100084F8450000BF3846BDE8FC814672656528
:1016200052544F535C71756575652E630000000060
:101630004572726F723A25732C25640D0A00000002
:10164000F8B505460F4613480068C068C468201DF9
:1016500000F022FBE069012818D1A06941192B464E
:101660003A462046FFF754FF80B1002003462A4641
:1016700001460090204601F0E3FC06462EB94FF4E7
:10168000F27205A109A0FEF7F5FD00BF2046616AD0
:101690008847F8BD740000204672656552544F5368
:1016A0005C74696D6572732E630000004572726F21
:1016B000723A25732C25640D0A000000F0B587B03E
:1016C00070E0039800280CDA04AE2EB940F2C32271
:1016D00039A13EA0FEF7CEFDD6E90020B1689047C3
:1016E00000BF039800285DDB059C606908B90120F4
:1016F00000E0002010B9201D00F0CEFA02A800F092
:10170000C3F8054603980A284AD2DFE800F0090525
:10171000072C2E4506082D2F00BF00BF00BF00BFBD
:101720000498A269811803462A462046FFF7F0FE76
:10173000C0B12046616A8847E069012812D10020C3
:1017400000900498A169421800231946204601F030
:1017500077FC07462FB940F2FD2217A11BA0FEF728
:1017600089FD00BF1DE000BF1BE000BF0498A06121
:10177000A06908B1012000E0002028B94FF44572AB
:101780000DA112A0FEF776FDA06941192B462A464D
:101790002046FFF7BDFE04E0204600F03FFB00E0DE
:1017A00000BF00BF002203A90C48006801F0BEF88A
:1017B000002886D107B0F0BD4672656552544F537C
:1017C0005C74696D6572732E630000004572726F00
:1017D000723A25732C25640D0A0000007C0000205D
:1017E000F8B505460C4600F091FD684600F04CF84F
:1017F0000646009820BB44B9B54206D801F058FB14
:1018000031462846FFF71CFF1CE03CB10E4800683B
:10181000006808B9012000E000200446A91B224608
:101820000A48006800F0CCFB01F042FB50B94FF0D1
:10183000805007490860BFF34F8FBFF36F8F01E0FF
:1018400001F036FBF8BD0000780000207C0000208D
:1018500004ED00E00A490968096809B9012100E0BE
:10186000002121B14FF0FF31064A116006E0044922
:101870000968C968C868034A416811607047000078
:101880003C0000206800002070B5044601F094F987
:10189000054607480068854204D200F00BF8012095
:1018A000206001E00020206001480560284670BDEE
:1018B000840000202DE9F8432DE021480068C0682D
:1018C00005681F480068C068C468201D00F0E4F97E
:1018D0002046616A8847E06901281CD1A069461941
:1018E000AE4207D966602461211D1548006800F0EA
:1018F000F7F910E0002003462A46014600902046F2
:1019000001F09EFB07462FB940F26E320DA112A0E6
:10191000FEF7B0FC00BF0A480068006808B9012063
:1019200000E000200028C8D00548D0F800800E480C
:101930000068034908600C48C0F80080BDE8F883DF
:10194000740000204672656552544F535C74696D93
:101950006572732E630000004572726F723A2573D0
:101960002C25640D0A000000780000200B48006858
:10197000401C08B9012000E0002020B9CA2208A1BB
:1019800011A0FEF777FC00BF502080F31188BFF351
:101990004F8FBFF36F8F00BF00BFFEE788000020AE
:1019A0004672656552544F535C706F727461626C1D
:1019B000655C525644535C41524D5F434D335C70FD
:1019C0006F72742E630000004572726F723A257355
:1019D0002C25640D0A00000008B500BF6846FFF71B
:1019E00049FC044620460099FFF7FAFEFFF766FE21
:1019F000F4E770B5044600F099F994F945501AE0FF
:101A0000A06C38B100212046FFF7CAFD88B100F074
:101A1000C9FB0EE0606A08B9012000E0002038B977
:101A200004F1240001F0EAF918B100F0BBFB00E07A
:101A300003E0681E45B2002DE2DC00BFFF2084F801
:101A4000450000F0B5F900F071F994F9445010E048
:101A5000206908B9012000E0002048B904F1100015
:101A600001F0CCF908B100F09DFB681E45B200E022
:101A700001E0002DECDC00BFFF2084F8440000F002
:101A800097F970BD2DE9F04104464FF0000800F0D1
:101A90003DFC3E48006808B9FFF700FC3C48006880
:101AA000204000285FD1A4B1083404F0070080B1C1
:101AB00004F00700C0F10800044404F0070008B96E
:101AC000012000E0002020B9952232A13AA0FEF7C3
:101AD000D1FB002C47D03C480068844243D83B4EA1
:101AE0003046056801E02E462D686868A04202D2A3
:101AF00028680028F7D125480068854233D030682F
:101B000000F10808286830606868001B102813D9A5
:101B10002F1907F0070008B9012000E0002020B9C4
:101B2000C2221CA124A0FEF7A5FB6868001B7860F8
:101B30006C603846FFF7B8FC234968680968081AE2
:101B4000214908600846006821490968884203D293
:101B50001D4800681E4908600D4968680968084307
:101B600068600020286001F0A3F908F0070008B9B8
:101B7000012000E0002028B94FF4817205A10EA0D9
:101B8000FEF778FB4046BDE8F08100009C00002095
:101B9000A80000204672656552544F535C706F7206
:101BA0007461626C655C4D656D4D616E675C686506
:101BB00061705F342E6300004572726F723A257354
:101BC0002C25640D0A000000A000002094000020D5
:101BD000A4000020001F4FF080730360001F21F05D
:101BE00001030360001F034B0360143802602038B8
:101BF000704700006D19000810B586B00446012139
:101C000044F20400FEF7CAFE4FF40070ADF8140071
:101C100003208DF8160018208DF8170005A91C4820
:101C2000FEF7E6FD4FF48060ADF8140004208DF857
:101C3000170005A91648FEF7DBFD25208DF80000EA
:101C400003208DF801008DF8020001208DF80300BB
:101C50006846FEF761FE01940020ADF80800ADF87B
:101C60000A00ADF80C00ADF810000C20ADF80E0025
:101C700001A90848FFF7BAF8012240F225510548AA
:101C8000FFF78EF801210348FFF754F806B010BDA6
:101C9000000801400038014001460A69D1E90130DD
:101CA0009860D1E9010358605068884201D1886882
:101CB0005060002008611068401E10601068704776
:101CC00000F1080141604FF0FF31816000F108012F
:101CD000C16001610021016070470021016170470E
:101CE00010B502460B685C1C0CB9106907E002F1E4
:101CF000080000E04068446824689C42FAD94468BF
:101D00004C604C68A160886041600A611468641C82
:101D1000146010BD42684A6093688B609368596094
:101D20009160086103685B1C0360704710B500BFD9
:101D3000502080F31188BFF34F8FBFF36F8F00BF28
:101D40000B480068401C0A490860084600680128E2
:101D50000DD108480068C0B208B9012000E0002099
:101D600028B94FF4B37204A10DA0FEF783FA10BD99
:101D70008800002004ED00E04672656552544F5320
:101D80005C706F727461626C655C525644535C4166
:101D9000524D5F434D335C706F72742E63000000D0
:101DA0004572726F723A25732C25640D0A0000008B
:101DB00010B50B48006828B940F26D1209A113A0B4
:101DC000FEF758FA06480068401E054908600846B4
:101DD000006820B9002080F3118800BF00BF10BD4B
:101DE000880000204672656552544F535C706F72D4
:101DF0007461626C655C525644535C41524D5F4362
:101E00004D335C706F72742E630000004572726F08
:101E1000723A25732C25640D0A00000070B5064641
:101E20003546002E35D0083D2C461A4960680968B1
:101E3000084008B1012000E0002028B94FF48B725F
:101E400015A11EA0FEF716FA206808B9012000E0CF
:101E5000002028B940F217120FA118A0FEF70AFAC5
:101E60000C4960680968084098B1206888B9094938
:101E7000606809688843606000F048FA1349606848
:101E800009680844114908602046FFF70DFB01F07E
:101E90000FF870BDA80000204672656552544F537C
:101EA0005C706F727461626C655C4D656D4D616EE6
:101EB000675C686561705F342E6300004572726F05
:101EC000723A25732C25640D0A000000A000002042
:101ED00000204FF0E02108618861064800684FF457
:101EE0007A71B0FBF1F0401E4FF0E021486107200D
:101EF000086170471000002070B5FEF795F905469F
:101F0000102D11D305F1E02090F8F043104800782F
:101F1000844201DB012000E0002028B940F2A52224
:101F20000CA116A0FEF7A6F91848006800F4E060BE
:101F300017490968884201D8012000E0002028B92B
:101F400040F2B52203A10DA0FEF794F970BD000088
:101F50008C0000204672656552544F535C706F725E
:101F60007461626C655C525644535C41524D5F43F0
:101F70004D335C706F72742E630000004572726F97
:101F8000723A25732C25640D0A0000000CED00E068
:101F900090000020024600200BE0084B53F8303040
:101FA00033B9064B43F8301003EBC0035A6002E02C
:101FB000401C0828F1D300BF70470000B800002083
:101FC0002DE9F04105460E4617462C46FFF7AEFEBA
:101FD00094F94400401C10B9002084F8440094F99E
:101FE0004500401C10B9002084F84500FFF7E0FED2
:101FF000A06B28B93A46314604F1240000F002F9FA
:102000002046FFF7F6FCBDE8F081000070B50446FD
:102010000025ACB10F48006808B9012000E000209D
:1020200028B940F20F520CA110A0FEF723F900F0DE
:102030006DF900212046FEF7C3FF00F039FF054689
:102040003DB94FF080500D490860BFF34F8FBFF38B
:102050006F8F70BD700000204672656552544F53FB
:102060005C7461736B732E63000000004572726FC5
:10207000723A25732C25640D0A00000004ED00E07F
:1020800070B50546FFF752FE15B92D48006800E00F
:1020900028460446201DFFF7FFFD78B9E06A00EBF3
:1020A0008000284951F8200040B994F82C100120F4
:1020B000884025490968814323480160A06A18B116
:1020C00004F11800FFF7E8FD20480068401C1F4994
:1020D00008601B480068844209D1211D1C48FFF795
:1020E00019FE1C480068401C1A49086009E01A489B
:1020F0000068401E184908602046FFF7B2F8FFF755
:10210000A9FBFFF755FE15480068C0B10C480068F0
:10211000844214D11248006808B9012000E0002070
:1021200028B940F2A5420FA113A0FEF7A3F84FF083
:10213000805015490860BFF34F8FBFF36F8F70BD9C
:1021400038000020F800002050000020640000202B
:10215000B403002044000020480000205400002068
:10216000700000204672656552544F535C74617371
:102170006B732E63000000004572726F723A257314
:102180002C25640D0A00000004ED00E003490968F5
:102190000160034909684160704700006000002049
:1021A0004C00002001200149086070475C000020BD
:1021B00070B504460D462CB94FF4366207A10CA049
:1021C000FEF758F80E48016818312046FFF788FDE1
:1021D00001212846FEF7F4FE70BD000046726565D9
:1021E00052544F535C7461736B732E630000000094
:1021F0004572726F723A25732C25640D0A00000037
:102200003800002070B505460E4614462DB940F63C
:102210008B3209A10DA0FEF72DF810480168183186
:102220002846FFF777FD0CB14FF0FF3621463046C8
:10223000FEF7C6FE70BD00004672656552544F53EE
:102240005C7461736B732E63000000004572726FE3
:10225000723A25732C25640D0A0000003800002016
:102260001CB51A4800210B468222CDE9001018A1A6
:10227000194800F061FC0446012C02D100F0A8FED0
:102280000446012C15D100BF502080F31188BFF304
:102290004F8FBFF36F8F00BF4FF0FF300F490860C3
:1022A00001200F49086000200E49086000F08AF8FC
:1022B0000BE0601C08B1012000E0002028B940F2CA
:1022C000DC7209A10DA0FDF7D5FF1CBD6C0000203C
:1022D00049444C4500000000191300086800002024
:1022E000540000204C0000204672656552544F5344
:1022F0005C7461736B732E63000000004572726F33
:10230000723A25732C25640D0A000000024800680B
:10231000401C0149086070477000002010B51B4840
:10232000006818B101201A4908602DE00020184902
:10233000086018480068B0FA80F0C0F11F0404EB90
:102340008400154951F8200008B1012000E0002068
:1023500028B94FF4356211A115A0FDF78BFF04EBEE
:1023600084010D4A02EB810041684968416000F137
:10237000080142688A4202D1416849684160416867
:10238000C9680F4A116000BF10BD00007000002036
:102390005C00002050000020F800002046726565B7
:1023A00052544F535C7461736B732E6300000000D2
:1023B0004572726F723A25732C25640D0A00000075
:1023C000380000201CB53B4C204600780190FF20CF
:1023D000214608700846007800909DF8000000F043
:1023E000F0009DF80010884201D1012000E000209B
:1023F00028B94FF48A7230A139A0FDF73BFF9DF850
:10240000000000F050003A49087007203949086080
:1024100009E038480068401E364908609DF8000011
:102420004006000E00909DF8000000F0800080281B
:10243000EFD030480068C0F10700042801D1012026
:1024400000E0002028B940F227121BA124A0FDF7CC
:1024500011FF28480068C0F10700042801D10120BD
:1024600000E0002028B94FF4987213A11CA0FDF7DA
:1024700001FF2048006800021E49086008460088E5
:1024800000F4E06008600B49019808701A48006881
:1024900040F47000184908600846006840F0704039
:1024A0000860FFF715FD002014490860FDF786FE5F
:1024B00000201CBD00E400E04672656552544F5395
:1024C0005C706F727461626C655C525644535C411F
:1024D000524D5F434D335C706F72742E6300000089
:1024E0004572726F723A25732C25640D0A00000044
:1024F0008C0000209000002020ED00E088000020EB
:1025000010B500BF502080F31188BFF34F8FBFF389
:102510006F8F00BF00F056FB18B14FF08050044998
:10252000086000BF002080F3118800BF10BD0000CC
:1025300004ED00E02DE9F84305460E4690460DB146
:10254000012000E0002028B94FF4B6720DA112A0BE
:10255000FDF790FE0EB9002701E005FB06F707F135
:102560005400FFF78FFA044644B104F1540943467E
:102570004A46314628460094FEF7E2FE2046BDE872
:10258000F88300004672656552544F535C7175655F
:1025900075652E63000000004572726F723A2573F4
:1025A0002C25640D0A00000070B505460E462C4629
:1025B00024B9FB221EA123A0FDF75CFEFFF7B6FBAA
:1025C000D4E90F12206801FB020060600020A063C4
:1025D0002068A060E06B401E226C216800FB0210A6
:1025E000E060FF2084F8440084F845009EB920692B
:1025F00008B9012000E00020A8B904F1100000F0A3
:10260000FDFB80B14FF0805012490860BFF34F8F3F
:10261000BFF36F8F07E004F11000FFF751FB04F1E7
:102620002400FFF74DFBFFF7C3FB012070BD000046
:102630004672656552544F535C71756575652E63BE
:10264000000000004572726F723A25732C25640DEC
:102650000A00000004ED00E02DE9FF4383B00646C8
:1026600088461D464FF0000934462CB940F2DB2263
:1026700060A165A0FDF7FEFDB8F1000F01D1206C4F
:1026800008B9012000E0002028B94FF4377259A1A1
:102690005DA0FDF7EFFD022D02D1E06B012801D115
:1026A000012000E0002028B940F2DD2251A156A00F
:1026B000FDF7E0FD00F070FA08B9059808B90120AF
:1026C00000E0002028B94FF438724AA14EA0FDF76F
:1026D000D1FD00BFFFF72AFBA06BE16B884201D35D
:1026E000022D38D12A4641462046FEF77CFD07469A
:1026F000A06C68B129462046FEF752FF28B34FF080
:10270000805045490860BFF34F8FBFF36F8F1CE0C7
:10271000606A08B9012000E0002068B904F12400D3
:1027200000F06CFB88B14FF080503B490860BFF36C
:102730004F8FBFF36F8F08E03FB14FF080503649A5
:102740000860BFF34F8FBFF36F8FFFF731FB01209E
:1027500007B0BDE8F083059818B9FFF729FB002002
:10276000F6E7B9F1000F04D101A8FFF70FFD4FF014
:102770000109FFF71DFBFFF7C9FDFFF7D7FA94F931
:102780004400401C10B9002084F8440094F945002E
:10279000401C10B9002084F84500FFF709FB05A98B
:1027A00001A800F07BF9F0B92046FEF7EAFEA0B1DF
:1027B00004F110000599FFF7FBFC2046FFF719F91B
:1027C00000F076FB002885D14FF080501249086058
:1027D000BFF34F8FBFF36F8F7CE72046FFF709F9F8
:1027E00000F066FB76E72046FFF703F900F060FB98
:1027F0000020ADE74672656552544F535C717565B4
:1028000075652E63000000004572726F723A257381
:102810002C25640D0A00000004ED00E02DE9F05FB6
:1028200080468A4615461E4644462CB940F2A132DF
:1028300035A13AA0FDF71EFDBAF1000F01D1206CC1
:1028400008B9012000E0002028B940F2A2322EA1F0
:1028500032A0FDF70FFD022E02D1E06B012801D15D
:10286000012000E0002028B940F2A33226A12BA0CD
:10287000FDF700FDFFF740FB00BF5021EFF3118093
:1028800081F31188BFF34F8FBFF36F8F00BF0746EF
:10289000A06BE16B884201D3022E2BD194F945B095
:1028A000324651462046FEF79EFC0BF10100C8B9A6
:1028B000A06C40B131462046FEF772FEB8B1B5B10A
:1028C0000120286013E0606A08B9012000E00020C0
:1028D00068B904F1240000F091FA40B13DB1012043
:1028E000286004E00BF1010040B284F845004FF08D
:1028F000010901E04FF0000900BF87F3118800BF14
:102900004846BDE8F09F00004672656552544F533B
:102910005C71756575652E63000000004572726F0D
:10292000723A25732C25640D0A0000002DE9F74149
:1029300083B005460E464FF000082C462CB940F2F5
:10294000DE424CA150A0FDF795FC0EB9206C08B9F1
:10295000012000E0002028B940F2E24245A14AA04F
:10296000FDF788FC00F018F908B9059808B90120AE
:1029700000E0002028B940F2E7423EA142A0FDF766
:1029800079FC00BFFFF7D2F9A76BF7B131462046BB
:10299000FEF714FC781EA063206908B9012000E04E
:1029A000002060B904F1100000F028FA38B14FF0AF
:1029B000805039490860BFF34F8FBFF36F8FFFF727
:1029C000F7F9012006B0BDE8F081059818B9FFF7C6
:1029D000EFF90020F6E7B8F1000F04D101A8FFF7E6
:1029E000D5FB4FF00108FFF7E3F9FFF78FFCFFF786
:1029F0009DF994F94400401C10B9002084F844006B
:102A000094F94500401C10B9002084F84500FFF7F8
:102A1000CFF905A901A800F041F8F0B92046FEF76A
:102A2000A3FDA0B104F124000599FFF7C1FB2046E6
:102A3000FEF7DFFF00F03CFA0028A3D14FF08050F2
:102A400015490860BFF34F8FBFF36F8F9AE7204699
:102A5000FEF7CFFF00F02CFA94E72046FEF7C9FFFF
:102A600000F026FA2046FEF77FFD00288AD00020DD
:102A7000A8E700004672656552544F535C71756556
:102A800075652E63000000004572726F723A2573FF
:102A90002C25640D0A00000004ED00E070B5054629
:102AA0000C462DB940F6264218A11DA0FDF7E2FB09
:102AB0002CB940F6274215A119A0FDF7DBFBFFF763
:102AC00035F91B4802686868131A2068401C08B969
:102AD000002617E0174928680968884204D068680A
:102AE000904201D801260DE02068984207D920685D
:102AF000C01A20602846FFF749FB002602E00020AC
:102B000020600126FFF754F9304670BD46726565B6
:102B100052544F535C7461736B732E63000000005A
:102B20004572726F723A25732C25640D0A000000FD
:102B30004C000020600000202DE9FF4F85B080464A
:102B400089461746DDE912ABB800FEF79BFF064643
:102B500056B15C20FEF796FF04460CB1266304E0F4
:102B60003046FFF75BF900E000247CB10020CDE99E
:102B700000ABCDE902403A4649464046089BFEF785
:102B8000F7FB2046FEF768FA012501E04FF0FF351C
:102B9000284609B0BDE8F08F0549096809B9012048
:102BA00005E00449096809B9022000E000207047E7
:102BB00054000020700000200149086870470000A0
:102BC0004C0000202DE9F0414FF00008414800681A
:102BD000002872D140480068451C3F480560EDB9A7
:102BE0003E480068006808B9012000E0002028B9CC
:102BF00040F633223AA13FA0FDF73CFB3748076877
:102C000040480068354908603E4807603E48006813
:102C1000401C3D490860FEF71DFE00BF3B480068B0
:102C200085423CD300BF2D480068006808B90120E8
:102C300000E0002020B14FF0FF30344908602DE063
:102C400026480068C068C4686668B54202D22F484A
:102C5000066023E0201DFFF71FF8A06A18B104F1F9
:102C60001800FFF719F894F82C1001208840284923
:102C70000968084326490860E16A01EB8101254A99
:102C800002EB8100211DFFF745F82349E06A09683E
:102C9000C96A8842C7D34FF00108C4E700BF1E4885
:102CA0000068C06A00EB80001A4951F82000012832
:102CB00001D94FF0010805E0FFE718480068401C03
:102CC000164908601648006808B14FF001084046F0
:102CD000BDE8F081700000204C0000203C00002086
:102CE0004672656552544F535C7461736B732E6307
:102CF000000000004572726F723A25732C25640D36
:102D00000A00000040000020600000206800002051
:102D100050000020F800002038000020580000205B
:102D20005C00002070B505462C460026002D4BD0D7
:102D300026480068844201D1012000E0002028B923
:102D400040F63B7222A127A0FDF794FA206D28B926
:102D500040F63C721EA123A0FDF78CFA206D401EA8
:102D60002065E16CE06A88422ED0206D60BB201D9A
:102D7000FEF792FF78B9E06A00EB80001D4951F838
:102D8000200040B994F82C10012088401A490968A5
:102D9000814319480160E06CE062E06AC0F1200004
:102DA000A06194F82C100120884013490968084359
:102DB00011490860E16A01EB81010E4A02EB8100D2
:102DC000211DFEF7A7FF0126304670BD3800002008
:102DD0004672656552544F535C7461736B732E6316
:102DE000000000004572726F723A25732C25640D45
:102DF0000A000000F80000205000002070B50646D0
:102E0000F068C4682CB940F6BB321AA11EA0FDF7C9
:102E100031FA04F11800FEF73FFF1F480068A8B917
:102E2000201DFEF739FF94F82C10012088401B4923
:102E30000968084319490860E16A01EB8101184AF1
:102E400002EB8100211DFEF765FF04E004F118018B
:102E50001448FEF75FFF1449E06A0968C96A8842AE
:102E600004D9012501201149086000E00025284609
:102E700070BD00004672656552544F535C746173B7
:102E80006B732E63000000004572726F723A2573F7
:102E90002C25640D0A000000700000205000002066
:102EA000F8000020A0030020380000205C00002073
:102EB00070B5002400263448006828B94FF4046235
:102EC00032A137A0FDF7D6F9FEF730FF2E48006893
:102ED000401E2D4908600846006800284FD134483C
:102EE000006800284BD024E03248C068C46804F170
:102EF0001800FEF7D1FE201DFEF7CEFE94F82C1030
:102F0000012088402C49096808432B490860E16A80
:102F100001EB8101294A02EB8100211DFEF7FAFE37
:102F20002749E06A0968C96A884202D30120254915
:102F300008602048006808B9012000E0002000284F
:102F4000D2D00CB1FEF786FC1F48056865B100BF02
:102F5000FFF738FE10B101201A4908606D1E002DE0
:102F6000F6D10020184908601648006838B10126DB
:102F7000300716490860BFF34F8FBFF36F8FFEF71E
:102F800017FF304670BD0000700000204672656576
:102F900052544F535C7461736B732E6300000000D6
:102FA0004572726F723A25732C25640D0A00000079
:102FB00048000020A003002050000020F80000205E
:102FC000380000205C0000205800002004ED00E0E4
:102FD0001CB50024FEF79CF80B48006858B10B485C
:102FE0001F2100234FF48272CDE9001008A10A4886
:102FF000FFF7A2FD04462CB940F20F1207A10CA066
:10300000FDF738F920461CBD7C0000208000002020
:10301000546D722053766300D919000846726565B5
:1030200052544F535C74696D6572732E63000000D7
:103030004572726F723A25732C25640D0A000000E8
:103040002DE9FF4704460D4616461F46DDF8308041
:103050004FF000092CB94FF4C17217A11BA0FDF766
:1030600009F91E48006810B3009501960294062DD8
:1030700015DAFFF791FD022808D100234246694680
:1030800016480068FFF7E8FA814610E000231A4668
:10309000694612480068FFF7DFFA814607E000231F
:1030A0003A4669460D480068FFF7B8FB8146484636
:1030B00004B0BDE8F08700004672656552544F5376
:1030C0005C74696D6572732E630000004572726FE7
:1030D000723A25732C25640D0A0000007C00002044
:1030E0000031000800000020B8000000280100089E
:1030F000B8310008B80000209849000044010008D9
:1031000000000000000000000000000000000000BF
:1031100000A24A04000000000000000001020304B5
:10312000060708090000000001020304010203046D
:10313000060708090204060800000000000000005D
:10314000000000000000000000000000000000007F
:10315000000000000000000000000000000000006F
:10316000000000000000000000000000000000005F
:10317000000000000000000000000000000000004F
:103180000000000000000000AAAAAAAA0000000097
:10319000000000000000000000000000000000002F
:1031A000000000000000000000000000000000001F
:0831B000000000000000000017
:04000005080000ED02
:00000001FF
